:020000040800F2
:100000004004002045010008DD07000875050008D0
:100010005107000811030008FD130008000000004C
:100020000000000000000000000000007D09000842
:10003000150300080000000065080008910A000888
:100040005F0100085F0100085F0100085F01000810
:100050005F0100085F0100085F0100085F01000800
:100060005F0100085F0100085F0100085F010008F0
:100070005F0100085F0100085F0100085F010008E0
:100080005F0100085F0100085F0100085F010008D0
:100090005F0100085F0100085F0100085F010008C0
:1000A0005F0100085F0100085F0100085F010008B0
:1000B0005F0100085F010008E50D00085F0100080E
:1000C0005F0100085F0100085F0100085F01000890
:1000D0005F0100085F0100085F0100085F01000880
:1000E0005F0100085F0100085F0100085F01000870
:1000F0005F0100085F0100085F0100085F01000860
:100100005F0100085F0100085F0100085F0100084F
:100110005F0100085F0100085F0100085F0100083F
:100120005F0100085F0100085F0100085F0100082F
:10013000DFF80CD000F0DAF800480047511500084D
:10014000400400200648804706480047FEE7FEE7D7
:10015000FEE7FEE7FEE7FEE7FEE7FEE7FEE7FEE777
:10016000950A00083101000880EA010210B502F08A
:100170000043400022D04A001FD0010E01EB126163
:10018000C0F35600C2F3560240F4000042F40002ED
:10019000A0FB022000047F39140400D0401C50EA68
:1001A000124001D44000491EC2B20C0604EBD0102C
:1001B000401C4008802A02D003E0002010BD20F03F
:1001C0000100002900DA0020184310BD30B480EA95
:1001D000010202F0004530F0004221F0004013D04F
:1001E00090B1C30DD40DC2F31601C0F31600E41A8A
:1001F00041F4000140F400027D34914201D3641CBB
:1002000000E04900002C02DA30BC002070474FF4B7
:1002100000000023914201D3891A034340084FEAAA
:100220004101F7D151B1914202D14FF0004105E0B7
:1002300002D24FF0010101E06FF0010103EBC45065
:10024000284430BC00F01AB896230022114600F072
:100250001EB80000002801DBC0F10040002901DBCE
:10026000C1F1004181427047002801DBC0F100402C
:10027000002901DBC1F10041884270470029A8BF75
:100280007047401C490008BF20F00100704710B4BF
:10029000B0FA80FC00FA0CF050EA010404BF10BC74
:1002A000704749B1CCF1200421FA04F411FA0CF1A1
:1002B00018BF012121430843A3EB0C01CB1D4FEADA
:1002C00000614FEA102042BF002010BC704700EBD5
:1002D000C35010440029A4BF10BC7047401C490003
:1002E00008BF20F0010010BC70470000064C074D0D
:1002F00006E0E06840F0010394E8070098471034F6
:10030000AC42F6D3FFF718FF8C160008AC160008B5
:1003100000BFFEE77047000030B589B005460C46C7
:100320000121022000F0A0FA0121042000F0ACFA23
:1003300018208DF823000420ADF8200003208DF84C
:10034000220008A9154800F02DF80020ADF81A0089
:10035000ADF81600ADF81850ADF814408DF81C003B
:1003600005A90F4800F01EFF7020ADF80400012021
:10037000ADF806000020ADF80A000220ADF80C0030
:1003800001A9074800F02EFE0121054800F076FE85
:100390000121034800F097FD09B030BD000801407D
:1003A000000400402DE9F04102460025002600200F
:1003B00000230024002791F803C00CF00F0591F8EA
:1003C00003C00CF0100CBCF1000F03D091F802C078
:1003D0004CEA050591F800C0BCF1000F31D014685B
:1003E00000202BE04FF0010C0CFA00F3B1F800C034
:1003F0000CEA03069E4220D183004FF00F0C0CFA4A
:1004000003F7BC4305FA03FC4CEA040491F803C06B
:10041000BCF1280F06D14FF0010C0CFA00FCC2F819
:1004200014C00AE091F803C0BCF1480F05D14FF0A9
:10043000010C0CFA00FCC2F810C0401C0828D1D3F3
:100440001460B1F800C0BCF1FF0F34DD5468002027
:100450002EE000F1080C4FF0010808FA0CF3B1F897
:1004600000C00CEA03069E4221D183004FF00F0C1E
:100470000CFA03F7BC4305FA03FC4CEA040491F8B8
:1004800003C0BCF1280F05D100F1080C08FA0CF8E4
:10049000C2F8148091F803C0BCF1480F07D100F1F5
:1004A000080C4FF0010808FA0CF8C2F81080401C44
:1004B0000828CED35460BDE8F081416170470161E6
:1004C000704700002DE9F0410024002500F042F8BB
:1004D0000F48007800F0800018B10D48007800F057
:1004E0003F0424040B48008804442046FFF7ACFE78
:1004F00007460949FFF738FE06460849FFF766FE3A
:1005000005460020024908702846BDE8F081000039
:10051000280000202A00002000002A4300401C463A
:1005200008B50121082000F0AFF94020ADF8000027
:1005300010208DF8030003208DF80200694604485E
:10054000FFF730FF40210248FFF7B7FF08BD00006A
:10055000000C014010B540210548FFF7AEFF142004
:1005600000F0BEFF40210248FFF7A9FF10BD0000C8
:10057000000C014000BFFEE710B54FF480510D485C
:10058000FFF79DFF4FF400510A48FFF796FF012146
:100590000848FFF794FF02210648FFF78EFF4FF44B
:1005A0002F71054800F0CBFD4FF42F71024800F089
:1005B000C8FD10BD000C0140002C014010B54FF4E7
:1005C00000510D48FFF77BFF4FF480510A48FFF7B9
:1005D00074FF02210848FFF772FF01210648FFF768
:1005E0006CFF4FF44871054800F0A9FD4FF44871C5
:1005F000024800F0A6FD10BD000C0140002C014097
:1006000008B50121082000F03FF903208DF8020011
:1006100010208DF803004002ADF80000694616482E
:10062000FFF7C0FE4FF48050ADF800006946124855
:10063000FFF7B8FE0220ADF8000069460E48FFF74C
:10064000B1FE0120ADF8000069460B48FFF7AAFE95
:100650004FF400510848FFF730FF4FF4805106482F
:10066000FFF72BFF02210448FFF727FF0121024873
:10067000FFF723FF08BD0000000C014030B589B032
:1006800005460C460121C80200F0FEF801210420B5
:1006900000F0FAF803208DF8160018208DF81700E6
:1006A0004FF48070ADF8140005A92748FFF77AFED3
:1006B00003208DF8160018208DF817004FF4006005
:1006C000ADF8140005A92048FFF76CFEADF81C50EA
:1006D000ADF818400020ADF81E00ADF81A0006A9CC
:1006E0001A4800F05FFD6020ADF804000120ADF86D
:1006F00006000020ADF80C0001A9144800F072FCBF
:100700000821124800F0BAFC6020ADF80400012076
:10071000ADF806000020ADF80C0001A90B4800F070
:10072000C3FC0821094800F0FDFC0121074800F046
:10073000BBFB0121054800F0C6FB0121034800F086
:10074000CEFB09B030BD000000080140002C014084
:1007500000BFFEE710B54FF400510D48FFF7AFFEA4
:100760004FF480510A48FFF7AAFE02210848FFF71C
:10077000A6FE01210648FFF7A0FE4FF42F710548A1
:1007800000F0DDFC4FF42F71024800F0DAFC10BDE0
:10079000000C0140002C014010B54FF400510D48F1
:1007A000FFF78DFE4FF480510A48FFF786FE0221C5
:1007B0000848FFF784FE01210648FFF780FE4FF44A
:1007C0002F71054800F0BBFC4FF42F71024800F078
:1007D000B8FC10BD000C0140002C01407047000027
:1007E00070B5002100230F22C47804B3154C24688F
:1007F00004F4E064C4F5E064210AC1F10403CA40D2
:10080000447804FA03F184781440214309010E4C22
:100810000678A155047804F01F050124AC40057842
:100820006D11AD0005F1E025C5F8004109E004783F
:1008300004F01F050124AC40044D0678761145F8FC
:10084000264070BD0CED00E000E400E080E100E037
:1008500002490143024A1160704700000000FA0596
:100860000CED00E07047000029B1064AD26902434E
:10087000044BDA6104E0034AD2698243014BDA6136
:10088000704700000010024029B1064A92690243F5
:10089000044B9A6104E0034A92698243014B9A61D6
:1008A000704700000010024030B5002100220024F3
:1008B00000232D4D6D6805F00C0121B1042905D0F0
:1008C000082923D105E0294D056022E0274D056068
:1008D0001FE0254D6D6805F47012234D6D6805F419
:1008E0008034022505EB92421CB9214D5543056029
:1008F0000BE01D4D6D6805F400351DB11C4D5543D1
:10090000056002E0194D5543056002E0174D056092
:1009100000BF00BF144D6D6805F0F0010909154DC9
:100920006B5C0568DD4045600F4D6D6805F4E06166
:10093000090A104D6B5C4568DD4085600A4D6D68A5
:1009400005F46051C90A0B4D6B5C4568DD40C5601C
:10095000054D6D6805F44041890B074D6B5CC5681A
:10096000B5FBF3F5056130BD0010024000127A00BE
:1009700000093D001400002024000020704710B53D
:1009800000F002F810BD00000CB5002001900090AE
:100990003348006840F480303149086000BF304877
:1009A000006800F4003000900198401C019000980D
:1009B00018B90198B0F5A06FF1D12948006800F48A
:1009C000003010B10120009001E00020009000985C
:1009D000012843D12348006840F0100021490860F5
:1009E0000846006820F0030008600846006840F0F0
:1009F000020008601A484068194948600846406883
:100A000048600846406840F4806048600846406896
:100A100020F47C1048600846406840F4E8104860C4
:100A20000846006840F08070086000BF0C4800680D
:100A300000F000700028F9D00948406820F0030059
:100A4000074948600846406840F00200486000BF1F
:100A50000348406800F00C000828F9D10CBD0000E4
:100A60000010024000200240042808D14FF0E0218D
:100A7000096941F004014FF0E022116107E04FF0F5
:100A8000E021096921F004014FF0E0221161704773
:100A90007047000010B51348006840F0010011498C
:100AA000086008464068104908400E4948600846FA
:100AB00000680E4908400B4908600846006820F4A9
:100AC000802008600846406820F4FE0048604FF42B
:100AD0001F008860FFF753FF4FF000600449086073
:100AE00010BD0000001002400000FFF8FFFFF6FEFE
:100AF00008ED00E0F0B50C46154600220021068CFA
:100B00004FF6FE773E400684028B018C4FF60C7642
:100B100032407E1C06EA03162E433243104EB0428A
:100B20000ED0104EB0420BD0B0F1804F08D00E4E18
:100B3000B04205D00D4EB04202D00D4EB04206D1AB
:100B40004FF6FD76314044F00106314305E04FF6A3
:100B5000F576314044F00106314302830184F0BD53
:100B6000002C014000340140000400400008004017
:100B7000000C0040F0B50C4615460022002100266E
:100B8000078C4FF6EF7C07EA0C070784028B018C79
:100B90004FF6FF7707EA041640F6FF473A404FF654
:100BA000FF7707EA03373A434FF6FF7707EA05274F
:100BB0003A43114FB8420ED0104FB8420BD0B0F1AB
:100BC000804F08D00E4FB84205D00E4FB84202D029
:100BD0000D4FB84206D14FF6DF77394046F0100787
:100BE000394305E04FF65F77394044F01007394349
:100BF00002830184F0BD0000002C0140003401405C
:100C00000004004000080040000C0040F0B50C4615
:100C10001546002200210026078C4FF6FF6C07EADC
:100C20000C070784828B018C4FF6FF7707EA0426B6
:100C30004FF60C773A404FF6FF7707EA03172F433A
:100C40003A43114FB8420ED0104FB8420BD0B0F11A
:100C5000804F08D00E4FB84205D00E4FB84202D098
:100C60000D4FB84206D14FF6FF57394046F4807712
:100C7000394305E04FF2FF57394044F48077394358
:100C800082830184F0BD0000002C0140003401404B
:100C90000004004000080040000C0040F0B50C4685
:100CA0001546002200210026078C4EF6FF7C07EA3D
:100CB0000C070784828B018C4FF6FF7707EA043616
:100CC00040F6FF473A404FF6FF7707EA05273A43D9
:100CD0004FF6FF7707EA03373A43114FB8420ED079
:100CE000104FB8420BD0B0F1804F08D00E4FB84231
:100CF00005D00E4FB84202D00D4FB84206D14DF686
:100D0000FF77394046F48057394305E047F6FF57EF
:100D1000394044F48057394382830184F0BD000098
:100D2000002C014000340140000400400008004055
:100D3000000C004030B585B005460C46012104206A
:100D4000FFF792FD01210820FFF79EFD8020ADF8FE
:100D5000100028208DF8130004A91E48FFF722FB7D
:100D600080211D48FFF7A9FBADF80850ADF80440FD
:100D70000020ADF80A00ADF8060001A9174800F000
:100D800011FA04201649088000204880012088803C
:100D90000020C88005200881104800F0C3F81E20FC
:100DA0008DF8000002208DF8010000208DF802006F
:100DB00001208DF803006846FFF712FD012205218E
:100DC000064800F005F90121044800F07CF805B060
:100DD00030BD000000080140000C01400008004048
:100DE0003400002010B52C48007800F08000002866
:100DF0004CD10121294800F084F8D0B12648007870
:100E000000F04000A8B12448007800F03F003F28DF
:100E10000AD12148007840F080001F4908704FF641
:100E2000FF701F49088004E01B480078401C1A49E5
:100E3000087004211B4800F064F838B316480078A5
:100E400000F0400078B11448007840F0800012496A
:100E50000870144800F052F8114908800021114828
:100E600000F015F912E000200B4908700C490880C9
:100E700000210C4800F068F90748007840F0400075
:100E8000054908700221074800F001F905210548CD
:100E900000F016F810BD000028000020000C0040F3
:100EA0002A0000200008004021B1028842F08002A0
:100EB000028004E002884FF67F731A400280704778
:100EC000CA430282704721B1028842F001020280C7
:100ED00004E002884FF6FE731A400280704731B179
:100EE000B0F8442042F40042A0F8442005E0B0F8F5
:100EF0004420C2F30E02A0F8442070470146088F38
:100F0000704730B50246002000230024158A05EA08
:100F10000103958905EA010413B10CB1012000E039
:100F2000002030BD70B505460C46244885420ED0E1
:100F3000234885420BD0B5F1804F08D02148854227
:100F400005D02148854202D02048854200D100E0EA
:100F500000BF208850B92389A28861882846FFF7FE
:100F6000C9FDE188284600F0F1F825E02088042832
:100F70000AD12389A28861882846FFF7FBFDE18812
:100F8000284600F0ECF817E0208808280AD12389C9
:100F9000A28861882846FFF739FEE188284600F0DC
:100FA000EBF809E02389A28861882846FFF776FEDE
:100FB000E188284600F0E9F870BD0000002C0140EF
:100FC000003401400004004000080040000C0040D4
:100FD0001AB183890B43838102E083898B43838128
:100FE0007047000070B5002400220023058C4FF6E6
:100FF000FE7635400584028C8388048B4FF68F750E
:101000002C40B51E2C400D882C43751E2A400D899E
:101010002A434D882A43144DA8420BD0134DA842B1
:1010200008D0134DA84205D0124DA84202D0124D4F
:10103000A84213D14FF6F7752A404D892A434FF63F
:10104000FB752A408D882A434FF6FF652B404FF6EB
:10105000FF552B408D892B43CD892B4383800483FF
:10106000CD888586028470BD002C0140003401408B
:101070000040014000440140004801400A46002170
:10108000018B4FF6F77319401143018370470A46ED
:101090000021018C4FF6DF7319404FF6FF7303EA0E
:1010A000021319430184704770B500220023002405
:1010B000058C4EF6FF7635400584038C8488828B40
:1010C00048F6FF752A404FF6FF452A400D884FF637
:1010D000FF7606EA05252A434DF6FF752B400D895C
:1010E00006EA05352B434D8806EA05352B430B4DA3
:1010F000A84202D00A4DA84208D14BF6FF752C40F9
:101100008D894FF6FF7606EA85152C43848082830D
:10111000CD88A0F84050038470BD0000002C014031
:10112000003401400A460021818B4FF2FF731940C1
:101130004FF6FF7303EA02231943818370478186C8
:101140007047A0F84010704781847047028B4FF6BB
:10115000F3731A400283028B0A4302837047028BA7
:101160004FF2FF331A400283028B4FF6FF7303EAFC
:1011700001231A4302837047828B4FF6F3731A40A0
:101180008283828B0A4382837047828B4FF2FF33C4
:101190001A408283828B4FF6FF7303EA01231A43BE
:1011A00082837047002202881D4B98420ED01D4B4F
:1011B00098420BD0B0F1804F08D01B4B984205D01D
:1011C0001A4B984202D01A4B984204D14FF68F73B3
:1011D0001A404B881A43174B984207D0164B984237
:1011E00004D04FF6FF431A40CB881A4302808B8805
:1011F00083850B8803850A4B98420BD0094B984294
:1012000008D00E4B984205D00D4B984202D00D4BA2
:10121000984201D10B7A0386012383827047000034
:10122000002C014000340140000400400008004050
:10123000000C00400010004000140040004001403D
:10124000004401400048014010B500F0FFF900F0F3
:101250000DF810BD21B1828942F40052828104E070
:1012600082894DF6FF731A40828170471FB50121B4
:101270008803FFF709FB4FF4E13000900020ADF840
:101280000C000C20ADF80A000020ADF80800ADF805
:101290000600ADF804006946064800F03FF8012258
:1012A00040F22551034800F014F801210148FFF7EE
:1012B000D1FF1FBD0038014002460020B1F5007F7C
:1012C00000D100BF13880B400BB1012000E00020CB
:1012D0007047F0B50346002400260025002040F6A4
:1012E0006A17B94200D100BF1846C1F3421401F099
:1012F0001F06012707FA06F5012C01D10C3004E086
:10130000022C01D1103000E014301AB107682F43CD
:10131000076002E00768AF430760F0BD2DE9F047C2
:1013200086B005460E460024A24600BFA14600270F
:10133000B08900B100BF2F462C8A4CF6FF700440E4
:10134000F08804432C82AC894EF6F3100440B08838
:1013500031890843718908430443AC81AC8A4FF654
:10136000FF400440B0890443AC8201A8FFF79CFA17
:101370001F48874202D1DDF810A001E0DDF80CA083
:10138000A88900F4004040B10AEBCA0000EB0A1043
:1013900031684900B0FBF1F807E00AEBCA0000EB46
:1013A0000A1031688900B0FBF1F86420B8FBF0F056
:1013B00004012009642101FB1089A88900F4004080
:1013C00040B1322000EBC900B0FBF1F000F00700A3
:1013D000044308E0322000EB09106421B0FBF1F077
:1013E00000F00F0004432C8106B0BDE8F087000038
:1013F00000380140C1F308028280704700BFFEE759
:10140000014A024900F013B82D15000830000020F1
:1014100002E008C8121F08C1002AFAD170477047BD
:10142000002001E001C1121F002AFBD170472DE905
:10143000F04116460F460446002503E03946B04702
:10144000641C6D1C20780028F8D12846BDE8F08186
:1014500010B56FF00400FFF707FB0A4800680A495F
:10146000B0FBF1F0094908700846007800EB400134
:10147000C1EBC0104FF6FF7101EAC00004490880BB
:1014800010BD00000000002000127A002C00002097
:101490002E0000200146114A12884A434FF0E023F3
:1014A0005A6100229A611A46126942F001021A61D9
:1014B00000BF4FF0E022106900F001021AB100F401
:1014C0008032002AF5D04FF0E022126922F00102AA
:1014D0004FF0E0231A6100229A6170472E0000202D
:1014E0000146114A12784A434FF0E0235A61002224
:1014F0009A611A46126942F001021A6100BF4FF068
:10150000E022106900F001021AB100F48032002AD2
:10151000F5D04FF0E022126922F001024FF0E023F3
:101520001A6100229A6170472C00002070B50446B1
:101530000D46E1B20548FFF75DFF00BF802103487B
:10154000FFF7BAFE0028F9D0204670BD00380140F0
:10155000FFF77AFE38A0FFF753FFFFF779FFFFF799
:101560004FF840F2CF2140F2CF70FFF787F840F2FA
:101570009F5140F2E730FEF7CFFE4FF4A060FFF737
:1015800067F947214FF6FF70FFF7D4FBFEF7C8FF5E
:1015900051E046212B48FFF7D2FD4FF49670FFF73C
:1015A00079FFFEF78FFF04462749FEF75DFE05D25F
:1015B000FFF704F84FF4FA70FFF76CFFFEF782FFB5
:1015C00004462149FEF746FE35D264211D48FFF747
:1015D000B6FDC820FFF75EFFFEF774FF04461A4908
:1015E000FEF742FE06D2FFF7B5F84FF42F70FFF773
:1015F00051FF20E020211348FFF7A1FDC820FFF78D
:1016000049FFFEF75FFF04460F49FEF72DFE06D2A5
:10161000FFF7C2F84FF42F70FFF73CFF0BE0FEF727
:10162000ABFF4FF42F70FFF735FFFFF793F84FF440
:101630002F70FFF72FFFACE7B3F5CABCBBAFB3C940
:10164000B9A60000000400400000824208B5012154
:101650000420FFF719F918208DF803004FF40070EB
:10166000ADF8000003208DF8020069460648FEF739
:1016700099FE04208DF803000002ADF800006946D1
:101680000148FEF78FFE08BD00080140AC160008B7
:10169000000000203400000010140008E0160008CC
:1016A000340000200C0400002014000800A24A04AA
:1016B0000000000000000000010203040607080902
:1016C00000000000010203040102030406070809E8
:1016D00002040608000000000000000000000000F6
:0400000508000131BD
:00000001FF
